:2000000000802020DD010000E9010000E9010000000000000000000000000000000000006E
:20002000000000000000000000000000E90100000000000000000000E9010000E901000002
:20004000E9010000E9010000E9010000E9010000E9010000E9010000E9010000E901000050
:2000600000000000E9010000E90100000000000000000000E9010000E9010000E9010000EE
:20008000E9010000E9010000E9010000E9010000E9010000E90100000000000000000000E4
:2000A000E9010000E90100000000000000000000E901000000000000E9010000E9010000AE
:2000C0000D48002101600D48011F0A680323DB4313400B6041680122914341604168120262
:2000E00091434160016830229143016001680F22914301607047C04608030B4004010B4069
:200100000C4D0D4C0120460300F060F80B48812101602E62284610380660204600F04CF8DF
:200120002E60204600F048F82E60204600F044F82E60F2E7B0320A40006889097880424074
:200140000748812101604160416581658160C1608164016503480449016001637047C046B9
:2001600078804240A0320A4000E0D10180B5064806494160064A5160064901601160102072
:2001800000F01AF880BDC04600080A40030000B100280A4001000026064880F3088800BF6B
:2001A00000BF00F01DF80020FFF7AAFF012000F019F8C0460080202082B001900199881ED1
:2001C000001F00BFFCD2009002B0704780B5FFF7CDFFFFF7B5FFFFF773FF80BDDCE77047BA
:1001E0000120704700BFFEE7FEE7000000000000AE
:00000001FF
