:2000000000802020CB010000D7010000D701000000000000000000000000000000000000A4
:20002000000000000000000000000000D70100000000000000000000D7010000D701000038
:20004000D7010000D7010000D7010000D7010000D7010000D7010000D7010000D7010000E0
:2000600000000000D7010000D70100000000000000000000D7010000D7010000D701000048
:20008000D7010000D7010000D7010000D7010000D7010000D7010000000000000000000050
:2000A000D7010000D70100000000000000000000D701000000000000D7010000D701000008
:2000C0000D48002101600D48011F0A680323DB4313400B6041680122914341604168120262
:2000E00091434160016830229143016001680F22914301607047C04608030B4004010B4069
:200100000A4D0B4E0B4C00F053F82846103806602E60204600F054F82E60204600F050F825
:200120002E60204600F04CF8F2E7C046B0320A4000E0D1010024F4000748812101604160CF
:20014000416581658160C1608164016503480449016001637047C04678804240A0320A4016
:2001600000E0D10180B5064806494160064A5160064901601160102000F022F880BDC046BB
:2001800000080A40030000B100280A4001000026064880F3088800BF00BF00F018F80020D1
:2001A000FFF7AEFF012000F014F8C0460080202080B5FFF7D7FFFFF7BFFFFFF781FF80BD51
:1801C000811E091F00BFFCD27047E1E770470120704700BFFEE7FEE73C
:00000001FF
